{
  "sourcePath": "/oasislabs/oasis-compile/test/integration/oasis-box/tmp/oasis-box/contracts/nested/NestedCounter.sol",
  "source": "pragma solidity ^0.4.24;\n\ncontract NestedCounter {\n\n  uint256 _counter;\n\n  function getCounter() public view returns (uint256) {\n\treturn _counter;\n  }\n\n  function incrementCounter() public {\n\t_counter += 1;\n  }\n}\n",
  "abi": [
    {
      "constant": true,
      "inputs": [],
      "name": "getCounter",
      "outputs": [
        {
          "name": "",
          "type": "uint256"
        }
      ],
      "payable": false,
      "stateMutability": "view",
      "type": "function"
    },
    {
      "constant": false,
      "inputs": [],
      "name": "incrementCounter",
      "outputs": [],
      "payable": false,
      "stateMutability": "nonpayable",
      "type": "function"
    }
  ],
  "bytecode": "0x608060405234801561001057600080fd5b5060d18061001f6000396000f3006080604052600436106049576000357c0100000000000000000000000000000000000000000000000000000000900463ffffffff1680635b34b96614604e5780638ada066e146062575b600080fd5b348015605957600080fd5b506060608a565b005b348015606d57600080fd5b506074609c565b6040518082815260200191505060405180910390f35b60016000808282540192505081905550565b600080549050905600a165627a7a723058205b4e2d2badd17cb4b34ab3016d07991bf9fed4f82f40265e1ff0646f0025c6830029",
  "compiler": {
    "name": "solc",
    "version": "0.4.24+commit.e67f0147.Emscripten.clang"
  },
  "contractName": "NestedCounter"
}