{
  "sourcePath": "/oasislabs/oasis-compile/test/integration/oasis-box/tmp/oasis-box/contracts/nested/NestedCounter.sol",
  "source": "pragma solidity ^0.4.24;\n\ncontract NestedCounter {\n\n  uint256 _counter;\n\n  function count() public view returns (uint256) {\n\treturn _counter;\n  }\n\n  function increment() public {\n\t_counter += 1;\n  }\n}\n",
  "abi": [
    {
      "constant": true,
      "inputs": [],
      "name": "count",
      "outputs": [
        {
          "name": "",
          "type": "uint256"
        }
      ],
      "payable": false,
      "stateMutability": "view",
      "type": "function"
    },
    {
      "constant": false,
      "inputs": [],
      "name": "increment",
      "outputs": [],
      "payable": false,
      "stateMutability": "nonpayable",
      "type": "function"
    }
  ],
  "bytecode": "0x608060405234801561001057600080fd5b5060d18061001f6000396000f3006080604052600436106049576000357c0100000000000000000000000000000000000000000000000000000000900463ffffffff16806306661abd14604e578063d09de08a146076575b600080fd5b348015605957600080fd5b506060608a565b6040518082815260200191505060405180910390f35b348015608157600080fd5b5060886093565b005b60008054905090565b600160008082825401925050819055505600a165627a7a72305820c92309162fd1df39b2bd647ddb8814d641fc327be39962719dc56ed94b1c0c010029",
  "compiler": {
    "name": "solc",
    "version": "0.4.24+commit.e67f0147.Emscripten.clang"
  },
  "contractName": "NestedCounter"
}